{
	"data": {
		"bytecode": {
			"linkReferences": {},
			"object": "60806040527317afd0263d6909ba1f9a8eac697f76532365fb955f806101000a81548173ffffffffffffffffffffffffffffffffffffffff021916908373ffffffffffffffffffffffffffffffffffffffff1602179055503480156061575f80fd5b506102038061006f5f395ff3fe608060405234801561000f575f80fd5b5060043610610029575f3560e01c8063e06b421b1461002d575b5f80fd5b61004760048036038101906100429190610144565b610049565b005b505050505050565b5f80fd5b5f73ffffffffffffffffffffffffffffffffffffffff82169050919050565b5f61007e82610055565b9050919050565b61008e81610074565b8114610098575f80fd5b50565b5f813590506100a981610085565b92915050565b5f62ffffff82169050919050565b6100c6816100af565b81146100d0575f80fd5b50565b5f813590506100e1816100bd565b92915050565b5f819050919050565b6100f9816100e7565b8114610103575f80fd5b50565b5f81359050610114816100f0565b92915050565b61012381610055565b811461012d575f80fd5b50565b5f8135905061013e8161011a565b92915050565b5f805f805f8060c0878903121561015e5761015d610051565b5b5f61016b89828a0161009b565b965050602061017c89828a0161009b565b955050604061018d89828a016100d3565b945050606061019e89828a01610106565b93505060806101af89828a01610106565b92505060a06101c089828a01610130565b915050929550929550929556fea26469706673582212209a487f2595ec73948bf26fae18aac1c185919f54ee14da3445c73125b42b26d864736f6c634300081a0033",
			"opcodes": "PUSH1 0x80 PUSH1 0x40 MSTORE PUSH20 0x17AFD0263D6909BA1F9A8EAC697F76532365FB95 PUSH0 DUP1 PUSH2 0x100 EXP DUP2 SLOAD DUP2 PUSH20 0xFFFFFFFFFFFFFFFFFFFFFFFFFFFFFFFFFFFFFFFF MUL NOT AND SWAP1 DUP4 PUSH20 0xFFFFFFFFFFFFFFFFFFFFFFFFFFFFFFFFFFFFFFFF AND MUL OR SWAP1 SSTORE POP CALLVALUE DUP1 ISZERO PUSH1 0x61 JUMPI PUSH0 DUP1 REVERT JUMPDEST POP PUSH2 0x203 DUP1 PUSH2 0x6F PUSH0 CODECOPY PUSH0 RETURN INVALID PUSH1 0x80 PUSH1 0x40 MSTORE CALLVALUE DUP1 ISZERO PUSH2 0xF JUMPI PUSH0 DUP1 REVERT JUMPDEST POP PUSH1 0x4 CALLDATASIZE LT PUSH2 0x29 JUMPI PUSH0 CALLDATALOAD PUSH1 0xE0 SHR DUP1 PUSH4 0xE06B421B EQ PUSH2 0x2D JUMPI JUMPDEST PUSH0 DUP1 REVERT JUMPDEST PUSH2 0x47 PUSH1 0x4 DUP1 CALLDATASIZE SUB DUP2 ADD SWAP1 PUSH2 0x42 SWAP2 SWAP1 PUSH2 0x144 JUMP JUMPDEST PUSH2 0x49 JUMP JUMPDEST STOP JUMPDEST POP POP POP POP POP POP JUMP JUMPDEST PUSH0 DUP1 REVERT JUMPDEST PUSH0 PUSH20 0xFFFFFFFFFFFFFFFFFFFFFFFFFFFFFFFFFFFFFFFF DUP3 AND SWAP1 POP SWAP2 SWAP1 POP JUMP JUMPDEST PUSH0 PUSH2 0x7E DUP3 PUSH2 0x55 JUMP JUMPDEST SWAP1 POP SWAP2 SWAP1 POP JUMP JUMPDEST PUSH2 0x8E DUP2 PUSH2 0x74 JUMP JUMPDEST DUP2 EQ PUSH2 0x98 JUMPI PUSH0 DUP1 REVERT JUMPDEST POP JUMP JUMPDEST PUSH0 DUP2 CALLDATALOAD SWAP1 POP PUSH2 0xA9 DUP2 PUSH2 0x85 JUMP JUMPDEST SWAP3 SWAP2 POP POP JUMP JUMPDEST PUSH0 PUSH3 0xFFFFFF DUP3 AND SWAP1 POP SWAP2 SWAP1 POP JUMP JUMPDEST PUSH2 0xC6 DUP2 PUSH2 0xAF JUMP JUMPDEST DUP2 EQ PUSH2 0xD0 JUMPI PUSH0 DUP1 REVERT JUMPDEST POP JUMP JUMPDEST PUSH0 DUP2 CALLDATALOAD SWAP1 POP PUSH2 0xE1 DUP2 PUSH2 0xBD JUMP JUMPDEST SWAP3 SWAP2 POP POP JUMP JUMPDEST PUSH0 DUP2 SWAP1 POP SWAP2 SWAP1 POP JUMP JUMPDEST PUSH2 0xF9 DUP2 PUSH2 0xE7 JUMP JUMPDEST DUP2 EQ PUSH2 0x103 JUMPI PUSH0 DUP1 REVERT JUMPDEST POP JUMP JUMPDEST PUSH0 DUP2 CALLDATALOAD SWAP1 POP PUSH2 0x114 DUP2 PUSH2 0xF0 JUMP JUMPDEST SWAP3 SWAP2 POP POP JUMP JUMPDEST PUSH2 0x123 DUP2 PUSH2 0x55 JUMP JUMPDEST DUP2 EQ PUSH2 0x12D JUMPI PUSH0 DUP1 REVERT JUMPDEST POP JUMP JUMPDEST PUSH0 DUP2 CALLDATALOAD SWAP1 POP PUSH2 0x13E DUP2 PUSH2 0x11A JUMP JUMPDEST SWAP3 SWAP2 POP POP JUMP JUMPDEST PUSH0 DUP1 PUSH0 DUP1 PUSH0 DUP1 PUSH1 0xC0 DUP8 DUP10 SUB SLT ISZERO PUSH2 0x15E JUMPI PUSH2 0x15D PUSH2 0x51 JUMP JUMPDEST JUMPDEST PUSH0 PUSH2 0x16B DUP10 DUP3 DUP11 ADD PUSH2 0x9B JUMP JUMPDEST SWAP7 POP POP PUSH1 0x20 PUSH2 0x17C DUP10 DUP3 DUP11 ADD PUSH2 0x9B JUMP JUMPDEST SWAP6 POP POP PUSH1 0x40 PUSH2 0x18D DUP10 DUP3 DUP11 ADD PUSH2 0xD3 JUMP JUMPDEST SWAP5 POP POP PUSH1 0x60 PUSH2 0x19E DUP10 DUP3 DUP11 ADD PUSH2 0x106 JUMP JUMPDEST SWAP4 POP POP PUSH1 0x80 PUSH2 0x1AF DUP10 DUP3 DUP11 ADD PUSH2 0x106 JUMP JUMPDEST SWAP3 POP POP PUSH1 0xA0 PUSH2 0x1C0 DUP10 DUP3 DUP11 ADD PUSH2 0x130 JUMP JUMPDEST SWAP2 POP POP SWAP3 SWAP6 POP SWAP3 SWAP6 POP SWAP3 SWAP6 JUMP INVALID LOG2 PUSH5 0x6970667358 0x22 SLT KECCAK256 SWAP11 BASEFEE PUSH32 0x2595EC73948BF26FAE18AAC1C185919F54EE14DA3445C73125B42B26D864736F PUSH13 0x634300081A0033000000000000 "
		},
		"gasEstimates": {
			"creation": {
				"codeDepositCost": "103000",
				"executionCost": "24417",
				"totalCost": "127417"
			},
			"external": {
				"swap(address,address,uint24,uint256,uint256,uint160)": "infinite"
			}
		},
		"methodIdentifiers": {
			"swap(address,address,uint24,uint256,uint256,uint160)": "e06b421b"
		}
	},
	"abi": [
		{
			"inputs": [
				{
					"internalType": "address",
					"name": "tokenIn",
					"type": "address"
				},
				{
					"internalType": "address",
					"name": "tokenOut",
					"type": "address"
				},
				{
					"internalType": "uint24",
					"name": "fee",
					"type": "uint24"
				},
				{
					"internalType": "uint256",
					"name": "amountIn",
					"type": "uint256"
				},
				{
					"internalType": "uint256",
					"name": "amountOutMinimum",
					"type": "uint256"
				},
				{
					"internalType": "uint160",
					"name": "sqrtPriceLimitX96",
					"type": "uint160"
				}
			],
			"name": "swap",
			"outputs": [],
			"stateMutability": "nonpayable",
			"type": "function"
		}
	]
}